:100000000C940B030C9428030C9428030C942803E1
:100010000C9428030C9428030C9428030C942803B4
:100020000C9428030C9428030C94EF110C94AB113E
:100030000C9414210C9428030C9428030C9428038A
:100040000C9428030C9428030C9428030C94280384
:100050000C9428030C94FE0D0C9428030C94280394
:100060000C9428030C9428030C9428030C94280364
:100070000C9428030C9428030C9428030C94280354
:100080000C9428030C9428030C9428030C94280344
:100090000C9428030C9428030C9428030C94280334
:1000A0000C9428030C9428030C9428032E002B0096
:1000B0002A00D75C354200001E00140004001D61B8
:1000C00034004D001F001A0016001B68E2002A00D1
:1000D000200008000700066450002C0021001500D5
:1000E000090019004F004A00220017000A0005000D
:1000F0000000296150000253000003530000E30098
:100100004F0002530000015300004C0023001C006C
:100110000B00110000002961240018000D001000E0
:1001200052004B0025000C000E00364351002C00FD
:10013000260012000F0037002F00280027001300B0
:100140003343387130004E002D0031003444D85C08
:100150000251000035002B002A45E100E0000000BC
:100160001E00140004001D0034004D001F001A0082
:1001700016001B00E2002A0020000800070006000D
:1001800050002C0021001500090019004F004A0002
:10019000220017000A0005000000296150000253E8
:1001A000000003530000E3004F0002530000010071
:1001B00000004C0023001C000B001100000029610E
:1001C000240018000D00100052004B0025000C0008
:1001D0000E00364351002C00260012000F0037009D
:1001E0002F002800270013000100387130004E0056
:1001F0002D0031003444E5000251000029000100C7
:1002000001000100010000003A001E02200222024B
:10021000010001003B001F02210224020100010035
:100220003C002F0226022F00010001003D00300299
:1002300027023000010001003E0031023500350286
:1002400000000100010001000000010000000100A9
:100250000100010000000100000001003F00520009
:10026000510024020000010040005F005C005900C2
:1002700001000100410060005D005A0037000100EC
:10028000420061005E005B0062000100430001006B
:100290002E0231002E000100440045000100010043
:1002A0000100000001000100010001000100000048
:1002B0000100010001000100010001000100F40043
:1002C000F2000100010001000100F000F100010056
:1002D000F40001000100F500F3000100F500010049
:1002E0000100010001000100000001000100010007
:1002F00000000100000001000100010000000100F9
:1003000000000100010001000100010000000100E7
:100310000100010001000100A9000100010001002D
:1003200001000100AA00B600010001000100AB00BD
:10033000A80001000100010001000100010001000E
:1003400001000100AE0001000100000001000100F9
:100350000100010001000000010001000100010096
:100360000100010001000100010001000100010085
:100370000100010001000100010001000100010075
:100380000100010001000100010001000100010065
:100390000000010001000100000001000000010058
:1003A0000100010000000100000001000100010047
:1003B0000100010000000100010001000100010036
:1003C00001000100010001003400010001000100F2
:1003D00001002F00330001000100010001000100B5
:1003E0002C080100010001000100010001000100D2
:1003F00001000000010001000100010001000000F7
:1004000001005F005C005900620001000100600013
:100410005D005A0062000100010061005E005B00A7
:100420000100010001000100010062000100010063
:1004300001000100010001000000010001000100B5
:1004400000000100000001000100010000000100A7
:100450000000010001000100010001000000010096
:100460000100010001000100010001000100010084
:100470000100010001000100010001000100010074
:100480000100010001000100010001000100010064
:100490000100010001000100010000000501090246
:1004A000A10185020901A10005091901290515000D
:1004B00025019505750181029501750381010501ED
:1004C000093009311581257F9502750881060938A3
:1004D0001581257F950175088106050C0A380215DE
:1004E00081257F950175088106C0C005010980A19D
:1004F0000185031A81002A83001601002603009556
:100500000175108100C0050C0901A10185041A01C3
:10051000002A9C02160100269C029501751081009C
:10052000C005010906A1018505050719E029E715A0
:100530000025019508750181020507190029EF15AD
:1005400000250195F075018102050819012905951D
:100550000575019102950175039101C00501090618
:10056000A101050719E029E7150025019508750186
:1005700081029501750881010507190029FF150001
:1005800026FF0095067508810005081901290595C3
:100590000575019102950175039101C009023B00A7
:1005A000020100A0FA090400000103010100092171
:1005B000110100012240000705810308000A090417
:1005C0000100010300000009211101000122C00007
:1005D0000705820320000A1201100100000008ED47
:1005E000FE0713010001020301040330000000169E
:1005F000034500720067006F0064006F0078002000
:100600000045005A00000008035A00530041000052
:1006100000040309040011241FBECFEFDAE0DEBF9F
:10062000CDBF11E0A0E0B1E0E4E8F7E402C005903E
:100630000D92AC3BB107D9F722E0ACEBB1E001C0C1
:100640001D92A33FB207E1F70E94E71E0C94952389
:100650000C940000E8EDF0E080818E7F80831092A2
:10066000E2001092DA001092E100A0EEB0E08C916E
:1006700081608C9380818F77808319BCA7EDB0E077
:100680008C918E7F8C9380818F7E80831092C002AC
:1006900008952091E4003091E50095E6A9012091AC
:1006A000EC00822F817020FF06C08091E80080FF5F
:1006B00006C080E008952091E80022FD1AC08091D4
:1006C000E502882389F0853089F08091EB0085FD73
:1006D0000FC02091E4003091E50042175307F9F272
:1006E0009150E1F684E0089582E0089583E0089552
:1006F00081E00895EF92FF920F931F93CF937C01B7
:100700008B010E944903C82F811117C08091E80016
:1007100085FD0BC08091E8008E778093E8000E94F1
:100720004903882399F3C82F08C0F70181917F01FD
:100730008093F1000150110949F78C2FCF911F913F
:100740000F91FF90EF9008958091E70287FF13C00B
:100750008091E80082FF06C08091E8008B7780934B
:10076000E80004C08091E5028111F2CF08958091E4
:10077000E5028823D9F38091E80080FFF8CF8091CB
:10078000E8008E77ECCF982F9093E900242F762FF6
:1007900050E0891731F07091EC002091ED005091FC
:1007A000F00021FD07C09F5F973071F78093E9004B
:1007B00081E008953091EB003E7F3093EB00309163
:1007C000ED003D7F3093ED003091EB0031603093D0
:1007D000EB007093EC002093ED005093F00020911B
:1007E000EE0027FDE0CF80E00895CF92DF92EF92F8
:1007F000FF920F931F93CF93DF93C8EDD0E08881D2
:100800008F7E8883E7EDF0E080818160808384E0E3
:1008100082BF81E08093C00288818E7F888302EE50
:1008200010E0F80110821092DA0081EEC82ED12C6F
:10083000F601108288818F77888388818068888319
:1008400088818F7D888319BC1092E5021092E602A0
:100850001092E4021092E30290EEE92EF12CF701DF
:1008600080818B7F808388818160888342E060E023
:1008700080E00E94C303F60180818E7F8083F801AF
:10088000808181608083808188608083F70180819E
:100890008E7F8083888180618883DF91CF911F91D3
:1008A0000F91FF90EF90DF90CF900895FC01809121
:1008B000ED029091EE0286179707A0F06115710581
:1008C00029F49091E8009E779093E80090E06115FC
:1008D000710551F4911108C08091E80082FF34C085
:1008E00080E00895BC01F2CF8091E5028823C1F138
:1008F0008530C1F18091E80083FD30C08091E8002F
:1009000082FDEACF8091E80080FFE1CF8091F30083
:100910002091F200382F6115710519F0283031054A
:1009200058F091E02830310509F090E02091E8007E
:100930002E772093E800CBCF81918093F100615016
:1009400071092F5F3F4FE7CF8091E502882341F087
:10095000853041F08091E80083FFBECF81E00895AB
:1009600082E0089583E008958091E502843011F4D7
:1009700082E0089581E008958091C20208959091E7
:10098000A902803F41F48091AA0287FD1092AA0239
:10099000992371F00895813F29F48091AA021816D5
:1009A000ACF3F6CF823F81F497FFF2CF1092A90209
:1009B0008091AA029091AB02892B9091AC02892B75
:1009C00049F71092AD020895833F19F4191674F394
:1009D000DFCF893F39F48091AB021816CCF6109224
:1009E000AB02D6CF8A3F29F48091AB0287FFD0CFEC
:1009F000F6CF8B3F39F48091AC0287FFC9CF1092BC
:100A0000AC02C6CF8C3F29F48091AC021816BCF31F
:100A1000BFCF843F31F48091A8028E7F8093A802DB
:100A2000B7CF853F21F48091A8028D7FF7CF863F15
:100A300021F48091A8028B7FF1CF873F21F4809130
:100A4000A802877FEBCF883F21F48091A8028F7E98
:100A5000E5CF8D3F31F480917B028E7F80937B02C6
:100A600097CF8E3F21F480917B028D7FF7CF8F3F10
:100A700009F08ECF80917B028B7FF0CF80917B023B
:100A800080FD16C081FD16C082FD16C08091AD02AA
:100A90008823A1F0883280F428E0829FC0011124CD
:100AA00068E270E00E940822862F672B39F00895D3
:100AB00082E0089584E0089588E0089581E0089533
:100AC00080917B0280FD16C081FD16C082FD18C09A
:100AD0008091AD02882391F08C3390F423E2829FC1
:100AE000C00111246CE370E00E940822862F672B5E
:100AF00049F0089588E0089581E1089585E008951A
:100B000083E2089581E00895803F31F40E946005FA
:100B100081958093AA020895813F19F40E9460058F
:100B2000F8CF823F31F40E94600581958093A9023D
:100B30000895833F19F40E946005F8CF893F29F496
:100B40000E943E058093AB0208958A3F21F40E94E3
:100B50003E058195F7CF8B3F31F40E943E0581958C
:100B60008093AC0208958C3F19F40E943E05F8CFA3
:100B7000843F31F48091A80281608093A802089597
:100B8000853F21F48091A8028260F7CF863F21F44F
:100B90008091A8028460F1CF873F21F48091A80260
:100BA0008860EBCF883F21F48091A8028061E5CF77
:100BB0008D3F31F480917B02816080937B020895A8
:100BC0008E3F21F480917B028260F7CF8F3FB9F78F
:100BD00080917B028460F1CFCF92DF92EF92FF92FF
:100BE0000F931F932FB7F89440917702509178029A
:100BF0006091790270917A022FBF6A017B01EE2425
:100C0000FF248C0130E020E0C016D106E206F30696
:100C100050F0481B590BCA011F910F91FF90EF90A4
:100C2000DF90CF90089541505109F3CF8091720227
:100C30008111109272020895809171029091700258
:100C4000892B90916F02892B8093BC019091720245
:100C50009923A1F0892B8093BC01809112018823F4
:100C600041F18091940287FF24C08EE1EEEBF1E028
:100C700090E0815000F591110E941606E0919602D5
:100C8000F09197023097E1F080911201882359F09A
:100C90008091940287FF07C08091BC018093BD01C1
:100CA00085E08093BC010280F381E02D8CEB91E024
:100CB000099486E0DBCF21912223D9F29F5FD9CF1F
:100CC0000895909112019923D1F09091940297FF89
:100CD00016C0E82FE695E695E695EE31E0F4F0E0F3
:100CE000E454FE4F282F277081E090E001C0880F68
:100CF0002A95EAF780959281892382830895EEEB05
:100D0000F1E09191891303C0DF0111971C9291E0EA
:100D1000E43CF907B1F70895909112019923C1F0CD
:100D20009091940297FF14C0E82FE695E695E6951A
:100D3000EE31F8F4F0E0E454FE4F877021E030E04B
:100D400001C0220F8A95EAF78281822B828308955F
:100D5000AEEBB1E0EFEF90E02D91821751F0EF3F55
:100D600019F4211101C0E92F9F5F9630A9F7EF3FD9
:100D700009F408950E2E000CFF0BE454FE4FE6CF4D
:100D8000E92FEE0FE90FEE0F8E0F982F97708695D3
:100D90008695869525E0829FF0011124ED5CFD4F3C
:100DA00050E040E080E0219130E0092E02C036950D
:100DB00027950A94E2F721703327042E01C0220FF1
:100DC0000A94EAF7822B4F5F5F4F4530510559F780
:100DD0000895E92FEE0FE90FEE0F8E0F982F977001
:100DE00041E001C0440F9A95EAF78695869586956D
:100DF00095E0899FF0011124ED5CFD4F30E020E08B
:100E000070E05191DF011197CB01022E02C096953F
:100E100087950A94E2F78170819585278423852739
:100E20008C932F5F3F4F2530310559F708958091FE
:100E3000320290910102981301C008958F5F87706C
:100E4000FACF882341F08095909170028923809396
:100E500070020C941C060895882339F0909170025A
:100E6000982B909370020C941C060895882341F0EF
:100E70008095909171028923809371020C941C06D5
:100E80000895882339F090917102982B9093710204
:100E90000C941C0608952091E4013091E501281777
:100EA000390771F09093E5018093E401E091960297
:100EB000F0919702309721F00084F185E02D09949C
:100EC00008952091E2013091E3012817390771F06C
:100ED0009093E3018093E201E0919602F0919702F2
:100EE000309721F00680F781E02D09940895E09174
:100EF0009602F0919702309721F00190F081E02D59
:100F0000099480E008959091940292FF06C0282FE2
:100F100028712830F9F4877F846093FF06C0282F5A
:100F200028712831F1F4877E84612091950220FF99
:100F300006C0382F38713830D9F4877F816021FF9F
:100F400006C0282F28712831D1F4877E816194FD55
:100F5000877E0895282F24712430F9F68B7F8860CE
:100F6000DCCF282F2471243101F78B7E8861DDCFFF
:100F7000382F3171313019F78E7F8860E0CF282FFC
:100F80002171213121F78E7E8861E1CFCF93DF93EC
:100F9000972F70E026E0929F600D711D1124FB01D8
:100FA00034E5839FE00DF11D1124EE0FFF1FE45582
:100FB000FF4FC591D491CE01C238D105B9F1E8F502
:100FC000C133D10509F499C050F5C932D10509F4EE
:100FD0008DC0CA32D10509F497C0C11542E5D407C6
:100FE00008F047C1C11521E5D20708F0C2C1C83ECB
:100FF000D10508F020C1C03ED10568F5C83AD10539
:1010000008F089C0C53AD10508F088C1C130D105C2
:1010100011F1209709F443C02497E8F440C0C53388
:10102000D10509F45CC0C933D105B9F62091940209
:10103000237089F080EE90E00EC0C33ED10591F19F
:1010400068F4C03ED105F9F0C23ED10531F62091D9
:10105000940222FD20C0DF91CF910895C63ED105B4
:1010600061F1C73ED10581F1C43ED10509F0B5CF8C
:101070002091950221FFEFCF8091940284FD0FC053
:1010800087EE90E0E8CF2091940220FDA3C130913B
:10109000950230FFE0CF83EE90E024FFDCCF90E0BC
:1010A00080E0D9CF2091940222FD97C13091950222
:1010B00030FDC0CF24FFCFCFF2CF2091940223FF89
:1010C000CACF24FDECCFDCCF2091940223FD88C150
:1010D0003091950231FFEECF84EE90E0BCCF2091AD
:1010E000940225FFB8CF89E290E0B5CF2091940219
:1010F00025FFB1CF85E390E0AECF2091940226FF8B
:10110000AACF8AE290E0A7CF2091940226FFA3CF36
:1011100081E390E0A0CFCF3BD10508F682EE94E4C6
:10112000C83AD10509F497CF89EE94E4C93AD105BC
:1011300009F491CF8AEE94E4CA3AD10509F48BCF31
:1011400085EB94E4CB3AD10509F485CF86EB94E4A2
:10115000CC3AD10509F47FCF83EB94E4CB3BD105A6
:1011600009F479CF84EB94E4CC3BD10509F473CF37
:1011700087EB94E4CD3AD10509F46DCF8CEC94E47F
:10118000C03BD10509F467CF8DEC94E4CE3AD1058C
:1011900009F461CF83E895E4CF3AD10509F45BCF38
:1011A0008AE895E4C13BD10509F455CF82E995E47D
:1011B000C23BD10509F44FCF84E995E4C33BD10587
:1011C00009F449CF81E296E4C43BD10509F443CF49
:1011D00083E296E4C53BD10509F43DCF84E296E471
:1011E000C63BD10509F437CF85E296E4C73BD1056C
:1011F00009F431CF86E296E4C83BD10509F42BCF40
:1012000087E296E4C93BD10509F425CF8FE694E443
:10121000CD3BD10509F41FCF80E794E4CE3BD10547
:1012200009F419CF80E094E4CA3BD10509F013CF4B
:101230008AE296E410CFC11530E2D30760F4C115FD
:1012400041E0D40708F007CFCE019065C03FD1053B
:1012500008F001CF24CFC11580E4D80708F41FCFD0
:10126000C11590E5D90708F068C0CE019F70906A5B
:10127000F2CEC11526E5D20718F5C11535E5D3071D
:1012800008F08DC0C11544E5D40708F083C09C2F39
:1012900096959695AE0143705527C115D34508F430
:1012A0006DC021E030E002C0220F331F4A95E2F703
:1012B00040E2949FC0011124822B932B9A68CBCEDD
:1012C000C1159AE5D90778F4C11529E5D20708F0C8
:1012D00070C0C11538E5D30708F4E1CE9C2F8827EC
:1012E000806F906AB8CEC1154BE5D40708F4D7CE0D
:1012F000C1158CE5D80708F469C0CE019056811558
:10130000904208F0CCCE8D2F8F710E94830790E021
:10131000982F882788279F718C2B49C081E890E4FB
:10132000C53AD10509F497CE82E890E4C63AD105D2
:1013300009F491CE83E890E48ECE9E01E4E03695E8
:101340002795EA95E1F723708C2F86958695837013
:1013500030E2839FC0011124922BC37021E030E062
:1013600002C0220F331FCA95E2F7822B932B9C6891
:1013700072CE9C2F8827816F906A6DCE21E030E07D
:1013800002C0220F331F4A95E2F740E2949FC0014A
:101390001124EBCF9C2F8827846F906A5CCE8C2F12
:1013A0000E94830790E0982F882788279F7190627A
:1013B00052CE8C2F8F700E94830734E0D695C7954C
:1013C0003A95E1F7CF709C2F906945CECE019927D1
:1013D000906641CE89E390E03ECE82EE90E03BCE37
:1013E00086EE90E038CEBF92CF92DF92EF92FF92DE
:1013F0000F931F93CF93DF938C01C0906A02D0901C
:101400006B02E0906C02F0906D02809173029091FB
:101410007402A0917502B0917602C82AD92AEA2AEC
:10142000FB2ACFE1D0E0BC2ED701C6010C2E04C0B0
:10143000B695A795979587950A94D2F780FD0EC02B
:10144000219788F7B12C8B2DDF91CF911F910F91B0
:10145000FF90EF90DF90CF90BF900895B8018C2F50
:101460000E94C607019761F3EECFCF93DF93EC01A3
:101470000E94F309BE01DF91CF910C94C6070E9430
:10148000350A292F2F7092959F7092509E3078F4D4
:10149000E92FF0E0E956FC4D0C941C22803F19F036
:1014A00020F4883E20F481E00895843FE1F380E059
:1014B0000895883EC0F3813FD1F7F5CF822F8695FE
:1014C00086958695089527982F98089526982E98A2
:1014D000089525982D98089556985E980895279A0E
:1014E0002F9A0895269A2E9A0895259A2D9A08954E
:1014F000CF92DF92EF92FF92CF936B017C01C701F5
:10150000AA27BB27C0E10097A105B10519F4D701AF
:10151000CB01C0E0492F5A2F6B2F7727411551057A
:101520006105710519F0C85FDB01CA01AC01BD019D
:10153000E4E07695679557954795EA95D1F741157B
:1015400051056105710519F0CC5FDB01CA01AC01E1
:10155000BD0132E076956795579547953A95D1F755
:10156000411551056105710519F0CE5FDB01CA0116
:10157000B695A79597958795892B8A2B8B2B09F084
:10158000CF5F0E946C0A0E94690A0E94660A0E944C
:10159000630AC150C73040F4EC2FF0E0EB55FC4D2E
:1015A0000C941C220E94750AC701B601CF91FF90CE
:1015B000EF90DF90CF9008950E94750A0E94720A02
:1015C000F3CF0E94750A0E946F0AEECF0E94750A3F
:1015D0000E94720AF8CF84B1807F84B985B1807F80
:1015E00085B98AB1837F8AB98BB1837F8BB93E98E5
:1015F0004698089580B38C7080BB81B3836F81BBA4
:101600000895CF9384E090E00E942222C82F81E2C7
:1016100090E00E942222982F8C2FCF9108950F9353
:101620001F93CF93DF9300D00F92CDB7DEB78C011D
:101630000E94B404823011F0843021F584E0898363
:101640001B830A8382E08093E9008FEF9091E8008A
:10165000815095FD06C095ED9A95F1F70000811136
:10166000F5CF8091E80085FF0DC050E040E063E0D9
:1016700070E0CE0101960E947A038091E8008E7797
:101680008093E8000F900F900F90DF91CF911F9102
:101690000F910895CF93DF9300D00F92CDB7DEB7AF
:1016A0002091E502243031F523E029838058910907
:1016B0009B838A8382E08093E9008FEF9091E8001A
:1016C000815095FD06C095ED9A95F1F700008111C6
:1016D000F5CF8091E80085FF0DC050E040E063E069
:1016E00070E0CE0101960E947A038091E8008E7727
:1016F0008093E8000F900F900F90DF91CF910895A5
:10170000CF93DF93EC010E94B404823011F0843057
:10171000F9F482E08093E9008FEF9091E800815026
:1017200095FD06C095ED9A95F1F700008111F5CF72
:101730008091E80085FF0CC050E040E066E070E07A
:10174000CE010E947A038091E8008E778093E800B2
:10175000DF91CF910895CF93DF93EC010E94B40401
:10176000823011F08430B9F5809112018823B1F1F3
:101770008091940287FF32C060E282E08093E900AA
:101780008FEF9091E800815095FD06C095ED9A95F8
:10179000F1F700008111F5CF8091E80085FF1BC0B3
:1017A0008091120170E050E040E0811104C050E0EF
:1017B00040E068E070E0CE010E947A038091E8008A
:1017C0008E778093E80080E2FE01A3ECB2E0019006
:1017D0000D928A95E1F7DF91CF91089568E081E05D
:1017E000CDCFEF92FF920F931F93CF93DF930E9481
:1017F0006C0A0E94690A0E94660A0E94630A88E8CD
:10180000E82EF12C8FEF90E0F701918380830AE8B6
:1018100010E0F80191838083CCE8D0E0998388833D
:101820000E94750AFFEF20E782E0F15020408040DF
:10183000E1F700C000000E94720A9FEFE0E7F2E0CB
:101840009150E040F040E1F700C000000E946F0AB4
:101850002FEF80E792E0215080409040E1F700C0F8
:1018600000000E94690AEFEFF0E722E0E150F0404B
:101870002040E1F700C000000E94660A8FEF90E769
:10188000E2E081509040E040E1F700C000000E949B
:10189000630A809182028770FFEF8F9FC00111243D
:1018A00095958795959587959927F70191838083DD
:1018B000F80191838083998388830E946C0A0E9437
:1018C000690A0E94660ADF91CF911F910F91FF90E4
:1018D000EF900C94630A60917E028CE090E00C948F
:1018E00036226FEE7EEF90E080E00E94542260E0AE
:1018F00082E090E00E94362260E083E090E00E9467
:101900003622109273021092740210927502109295
:10191000760260E084E090E00E94362260E081E29E
:1019200090E00E94362260E085E090E00E9436223E
:1019300060E086E090E00E9436226FEF87E090E062
:101940000E94362240E050E0BA0188E090E00E9418
:10195000482260E08DE090E00E94362240E050E0B6
:10196000BA0188E190E00E94482260E087E190E0BF
:101970000E94362240E050E0BA018CE190E00E94E3
:10198000482260E080E290E00E94362210928202BB
:1019900010928302109284021092850284E080618A
:1019A000809382024091820250918302609184026E
:1019B000709185028FE090E00E94482240E050E064
:1019C000BA0183E190E00C944822CF93C82F87306E
:1019D00070F58091060190910701892B89F564E6E5
:1019E00070E080E40E9441219093070180930601FA
:1019F000892BD1F464E670E082E10E949D219093EE
:101A0000070180930601892B79F481E090E001C001
:101A1000880FCA95EAF764E670E080950E949D21E0
:101A20009093070180930601CF910C94F0218A30A6
:101A3000B9F040F4883071F0893079F0209A289814
:101A4000CF9108958C3091F070F08D30B9F73E9AB7
:101A50004698F6CF219A2998F3CF229A2A98F0CF68
:101A6000239A2B98EDCF529A5A98EACF539A5B98C3
:101A7000E7CF80E290E09093070180930601809188
:101A8000DF0181110EC00E943B2181E08093DF01C4
:101A90002FEF83ED90E3215080409040E1F700C0AC
:101AA000000064E670E080E40E9441219093070109
:101AB00080930601892B09F04EC064E670E080E057
:101AC0000E949D219093070180930601892B09F0C4
:101AD00042C064E670E080E00E949D21909307017F
:101AE00080930601892BB9F564E670E08FE30E94CC
:101AF0009D219093070180930601892B61F50E9437
:101B0000F02164E670E080E40E9441219093070197
:101B100080930601892BF9F464E670E08CE00E9462
:101B20009D219093070180930601892BA1F464E61F
:101B300070E080E00E949D21909307018093060150
:101B4000892B49F464E670E08FE30E949D21909315
:101B50000701809306010E94F021809106010895FB
:101B6000CF93873008F040C0809106019091070123
:101B7000C0E0892B71F464E670E080E40E944121AA
:101B80009093070180930601892B31F0C0E00E94F9
:101B9000F0218C2FCF91089564E670E083E10E94DC
:101BA0009D219093070180930601892B79F764E6C4
:101BB00070E081E40E944121909307018093060127
:101BC000892B21F784E690E00E94CC2197FF05C085
:101BD0009093070180930601D9CFC82FC09510922A
:101BE000070110920601D3CFCFB18FB186958695AC
:101BF0008C73C3708C2BC82FC095CBCF78941F9259
:101C00001FB61F9211248F939F93AF93BF93809120
:101C1000770290917802A0917902B0917A020196B0
:101C2000A11DB11D8093770290937802A093790251
:101C3000B0937A02BF91AF919F918F911F901FBE79
:101C40001F9018952FB7F8948091770290917802A1
:101C5000A0917902B0917A022FBF0895E091960287
:101C6000F0919702309749F082E08093A7020480B8
:101C7000F581E02D87EA92E009950E94220E90936B
:101C8000AF028093AE0208951092700210926F021C
:101C90000E941C0686E0E7EAF2E0DF011D928A95C9
:101CA000E9F71092AD0210927B020E942E0E90E096
:101CB00080E00E94610790E080E00C944B070E9456
:101CC000780A60936A0270936B0280936C0290931F
:101CD0006D020C94440E0F931F9341E050E060E0BE
:101CE00070E004C0440F551F661F771F8A95D2F716
:101CF000CB01BA01609570958095909500916A022C
:101D000010916B0220916C0230916D02602371235F
:101D1000822393231F910F910C945F0E90916E027A
:101D20008095892380936E02282F277071F4282FC5
:101D3000082E000C330B9217130639F08595859504
:101D400085950E946B0E10926E0208950F931F935B
:101D500041E050E060E070E004C0440F551F661F92
:101D6000771F8A95D2F780916A0290916B02A091B9
:101D70006C02B0916D028A019B01082B192B2A2B52
:101D80003B2BC901B8011F910F910C945F0E60931A
:101D900073027093740280937502909376020C9490
:101DA000440E1092710280911201EEEBF1E0882353
:101DB00059F08091940287FF07C08EE1DF011D92E8
:101DC0008A95E9F70C94440E86E0F8CF1F93CF93E1
:101DD000DF93CDB7DEB7AA970FB6F894DEBF0FBE7C
:101DE000CDBF87EE92E02091F100FC012193CF015D
:101DF000F2E08F3E9F07B9F78091E802833009F443
:101E00006FC0B8F4813009F446C0823009F4B0C024
:101E10008091E80083FF87C28091E7029091E802F9
:101E20009A3008F080C2E92FF0E0E455FC4D0C94A4
:101E30001C228A3009F48BC08B3009F46EC08930C3
:101E400039F78091E702813219F78091EB02909186
:101E5000EC020297E8F68091E800877F8093E80023
:101E60008091E80082FF37C09091F3008091F200EA
:101E7000029729F48091F1008B7F813021F48091C9
:101E8000F1008093C2028091E8008B778093E80094
:101E90000E94A403BDCF8091E702813A09F0B8CF38
:101EA0008091E800877F8093E8008091EB02909119
:101EB000EC02892B61F460E283EC92E070E00E9416
:101EC00056048091E8008B778093E800A1CF60E012
:101ED00090E080E0F3CF8091E5028111C1CF98CFEF
:101EE0008091E702813A09F093CF8091EB029091C3
:101EF000EC02892B09F08CCF8091E800877F8093DA
:101F0000E8008091E80080FFFCCF8091120180936F
:101F1000F1008091E8008E77B9CF8091E70281329D
:101F200009F076CF8091EB029091EC02892B09F0B9
:101F30006FCF8091E800877F8093E8000E94A40320
:101F40008091E902809312010E94D10E61CF8091AD
:101F5000E702813209F05CCF8091E800877F8093AF
:101F6000E8000E94A4038091EA028093C10250CF4E
:101F70008091E702813A09F04BCF8091E800877F9A
:101F80008093E8008091E80080FFFCCF8091C1023F
:101F9000BECF803899F0823809F0C5C18091EB023C
:101FA0008F70873008F0BFC18093E9008091EB000B
:101FB00085FB882780F91092E90006C08091E30232
:101FC0009091E402911182609091E800977F909344
:101FD000E8008093F1001092F1008091E8008E7784
:101FE0009EC1882309F48CC1823009F09CC1809184
:101FF000E90281118FC18091EB028F702FEF280FC2
:10200000263008F090C18093E9002091EB0020FF7A
:1020100081C1933031F48091EB0080628093EB00BA
:1020200079C19091EB0090619093EB0021E030E05A
:1020300001C0220F8A95EAF72093EA001092EA0085
:102040008091EB008860EACF81116DC11091E902A7
:102050001F778091E3008078812B8093E30080914B
:10206000E800877F8093E8000E94A4038091E80045
:1020700080FFFCCF8091E30080688093E30082E0E2
:10208000111183E08093E5024EC18058823008F040
:102090004AC18091E9029091EA028C3D23E09207C7
:1020A000A1F583E08A838AE289834FB7F894DE0141
:1020B000139620E03EE051E2E32FF0E0509357000A
:1020C000E49120FF03C0E295EF703F5FEF708E2F29
:1020D00090E0EA30C0F0C7968D939D932F5F243136
:1020E00059F74FBF8091E800877F8093E8006AE24C
:1020F00070E0CE0101960E9456048091E8008B7733
:102100008093E80010C1C096E7CF4091EB02509158
:10211000EC02292F33272330310509F445C078F527
:102120002130310509F47BC08BE390E0ECE9F5E068
:102130002230310509F0F7C02091E800277F209375
:10214000E8002091ED023091EE028217930708F427
:102150009C0140E02115310509F070C041116EC0AD
:102160008091E80082FDC9CF8091E502882329F2A1
:10217000853019F28091E80083FFF2CFBECF213283
:10218000310509F440C02232310509F0CCC04115B7
:10219000510509F44EC04130510509F0C4C080EC2E
:1021A00090E0ECE9F4E0C8CF992781309105D9F0AF
:1021B000009771F082309105F1F0039709F0B3C0F8
:1021C000E9EEF5E0E4918E2F90E0E9EEF5E007C04E
:1021D000E1E1F6E0E4918E2F90E0E1E1F6E0009796
:1021E00009F4A1C0A9CFE7E0F6E0E4918E2F90E0DA
:1021F000E7E0F6E0F4CFEFEEF5E0E4918E2F90E02B
:10220000EFEEF5E0ECCF4115510571F0413051058D
:1022100009F089C089E090E0E7ECF5E08DCF82E13C
:1022200090E0E7EDF5E088CF89E090E0EEEAF5E0B8
:1022300083CF80E490E0ECE5F5E07ECF8091E5028D
:10224000882309F45ACF853009F457CF8091E800EC
:1022500083FD53CF8091E80082FD82CF8091E8001A
:1022600080FF78CF9091F3008091F2002115310525
:1022700019F08830910550F041E0089709F040E0EE
:102280008091E8008E778093E80064CF449140937A
:10229000F1003196215031090196E8CF803809F0DC
:1022A00042C08091E800877F8093E8008091E60239
:1022B0008093F10092CE811136C01091E902123064
:1022C00090F58091E800877F8093E8001093E60204
:1022D0000E94A403112311F084E005C08091E30063
:1022E00087FDFACF81E08093E50242E061EC81E076
:1022F0000E94C30342E261EC82E00E94C30313C068
:102300008091E902813079F481E0933009F080E036
:102310008093E4021092E9008091E800877F809327
:10232000E8000E94A4038091E80083FF0AC0809126
:10233000E800877F8093E8008091EB0080628093C3
:10234000EB00AA960FB6F894DEBF0FBECDBFDF91AB
:10235000CF911F9108951F920F920FB60F921124E3
:102360002F933F934F935F936F937F938F939F939D
:10237000AF93BF93CF93DF93EF93FF93D091E90097
:10238000DF708091EC00C82FC17080FDC0E8109212
:10239000E9008091F000877F8093F00078940E949C
:1023A000E60E1092E9008091F00088608093F000C2
:1023B000CD2BCF70C093E900FF91EF91DF91CF91CA
:1023C000BF91AF919F918F917F916F915F914F914D
:1023D0003F912F910F900FBE0F901F9018951F9255
:1023E0000F920FB60F9211242F933F934F935F9349
:1023F0006F937F938F939F93AF93BF93EF93FF93CD
:102400008091E10082FF09C08091E20082FF05C057
:102410008091E1008B7F8093E1008091DA0080FF62
:1024200024C08091D80080FF20C08091DA008E7F88
:102430008093DA008091D90080FF9FC080E189BD40
:1024400082E189BD09B400FEFDCF81E08093E50201
:102450008091C002811109C00E942A030E94F503E5
:102460008091E20084608093E2008091E10080FF2F
:1024700017C08091E20080FF13C08091E2008E7F40
:102480008093E2008091E20080618093E20080917D
:10249000D80080628093D80019BC85E08093E50263
:1024A0008091E10084FF2DC08091E20084FF29C06B
:1024B00080E189BD82E189BD89B5982F917080FF47
:1024C000FBCF8091D8008F7D8093D8008091E10070
:1024D0008F7E8093E1008091E2008F7E8093E20006
:1024E0008091E20081608093E2008091E60288237F
:1024F00009F449C084E08093E5020E94D10E0E9455
:1025000077078091E10083FF27C08091E20083FF7D
:1025100023C08091E100877F8093E10082E0809377
:10252000E5021092E6028091E1008E7F8093E10047
:102530008091E2008E7F8093E2008091E2008061D2
:102540008093E20042E060E080E00E94C30380915B
:10255000F00088608093F000FF91EF91BF91AF9100
:102560009F918F917F916F915F914F913F912F91AB
:102570000F900FBE0F901F90189519BC1092E50296
:102580001092C00272CF8091E30087FD93E0909398
:10259000E502B3CF882309F459C0823871F40E9450
:1025A000770781FF53C089E30E948C060E941C06B6
:1025B00089E30E9461060C941C06833859F40E943A
:1025C000770780FF43C083E50E948C060E941C06AB
:1025D00083E5EFCF843859F40E94770782FF36C035
:1025E00087E40E948C060E941C0687E4E2CF9CEFE1
:1025F000980F913AF0F290E2980F983088F4877033
:1026000021E030E0A90102C0440F551F8A95E2F78E
:10261000CA01809590917102892380937102CBCF7A
:102620009BE5980F933020F490E080E00C946107D4
:1026300098E5980F973120F490E080E00C944B07D8
:10264000803F20F00E94BF040C942E0E0895882332
:1026500009F408C18238B9F40E94770781FD02C1EC
:1026600089E30E948C060E941C062FEF81EE94E005
:10267000215080409040E1F700C0000089E30E94B3
:1026800061060C941C068338A1F40E94770780FD34
:10269000E9C083E50E948C060E941C062FEF81EEA4
:1026A00094E0215080409040E1F700C0000083E5B5
:1026B000E6CF8438A1F40E94770782FDD3C087E477
:1026C0000E948C060E941C062FEF81EE94E02150A0
:1026D00080409040E1F700C0000087E4D0CF9CEF3D
:1026E000980F913A18F40E948C06CBCF90E2980F85
:1026F000983068F4877021E030E001C0220F8A959D
:10270000EAF780917102822B80937102BACF9BE528
:10271000980F933070F4853A31F0863A39F083E8B7
:1027200090E00C94610781E890E0FBCF82E890E0B4
:10273000F8CF98E5980F973108F08EC0883A09F4E1
:1027400046C0893A09F446C08A3A09F446C08B3A31
:1027500009F446C08C3A09F446C08B3B09F446C0E4
:102760008C3B09F446C08D3A09F446C0803B09F41D
:1027700046C08E3A09F446C08F3A09F446C0813B00
:1027800009F446C0823B09F446C0833B09F446C0C5
:10279000843B09F446C0853B09F446C0863B09F4F6
:1027A00046C0873B09F446C0883B09F446C0893BD4
:1027B00009F446C08D3B09F446C08E3B09F446C07F
:1027C0008A3B09F446C090E080E00C944B0782EE0F
:1027D00090E0FBCF89EE90E0F8CF8AEE90E0F5CF65
:1027E00085EB90E0F2CF86EB90E0EFCF83EB90E0CB
:1027F000ECCF84EB90E0E9CF87EB90E0E6CF8CEC78
:1028000090E0E3CF8DEC90E0E0CF83E891E0DDCF86
:102810008AE891E0DACF82E991E0D7CF84E991E0CC
:10282000D4CF81E292E0D1CF83E292E0CECF84E2B6
:1028300092E0CBCF85E292E0C8CF86E292E0C5CFAE
:1028400087E292E0C2CF8FE690E0BFCF80E790E0D2
:10285000BCCF8AE292E0B9CF803F20F00E9484058D
:102860000C942E0E0895CF93C82F0E942713C933BE
:1028700049F42FEF87EE93E0215080409040E1F73C
:1028800000C000008C2FCF910C94CA120F931F939D
:10289000CF93DF93C62FD42F022FFC018281882390
:1028A000A1F06093F5010E94220E9093E1018093C4
:1028B000E001C77081E001C0880FCA95EAF7DF9197
:1028C000CF911F910F910C9441071091F5011613B0
:1028D00035C08091E0019091E1010E94EC05883CB7
:1028E000910560F5C0E2CD0F1D17B9F080E2810FB0
:1028F000883040F4177081E001C0880F1A95EAF71C
:102900000E943607C83048F481E09D2F977001C0BF
:10291000880F9A95EAF70E944107802F0E9433148E
:10292000C83098F4D77081E001C0880FDA95EAF7D3
:10293000DF91CF911F910F910C943607C77081E002
:1029400001C0880FCA95EAF7F3CFDF91CF911F91AD
:102950000F9108954F925F926F927F928F929F9204
:10296000AF92BF92CF92DF92EF92FF920F931F939D
:10297000CF93DF9300D000D00F92CDB7DEB76C01BC
:10298000FC0183819481892B39F01081F180812FA2
:102990008F218F3F09F05EC60F900F900F900F9020
:1029A0000F90DF91CF911F910F91FF90EF90DF90EB
:1029B000CF90BF90AF909F908F907F906F905F90DF
:1029C0004F9008950E94F309082F682F89819A81FA
:1029D0000E94E906E12FF0E026E0F29EE00DF11DF5
:1029E000112434E5039FE00DF11D1124EE0FFF1FAC
:1029F000E455FF4F0591149109308DE5180709F052
:102A0000F4C0F60182818823C9F18091820291E0AD
:102A1000980F9770887F953008F4892B80938202F5
:102A2000809182028770FFEF8F9FC00111249595DE
:102A3000879595958795992790938900809388002D
:102A400090938B0080938A0090938D0080938C00EC
:102A500040918202509183026091840270918502BC
:102A60008FE090E00E94482260916A0270916B02B0
:102A700080916C0290916D020E94780AF601828129
:102A80008111D9C017FF26C1F6018281882309F47C
:102A90004DC0809171028093F40110927102809177
:102AA0007E02813009F4F1C0882309F4EAC0823043
:102AB00009F4F8C0843009F4FCC08FE39CE9019765
:102AC000F1F700C000005801E894B7F84CE0E42E9C
:102AD000F12C95010E2C02C0369527950A94E2F749
:102AE0002F7087E290E031F0822F90E02A3008F0DA
:102AF000E5C04D960E94331494E0E91AF108ECEF1A
:102B0000EE16EFEFFE0629F780917E02813009F480
:102B1000DBC0882309F4D4C0823009F4D1C08430EA
:102B200009F4D6C08091F40180937102F60182818C
:102B3000882309F4E7C11092F5010230FCE51F0774
:102B400008F4D6C106312CE5120738F098012A5F47
:102B50003C452730310508F0CBC10E94010B909312
:102B60009502809394020F303CE5130709F4A1C14C
:102B700008F01BC108309CE5190709F484C108F06E
:102B8000F0C00430FCE51F0709F471C108F0D6C09D
:102B900002303CE5130709F462C103301C4509F417
:102BA00062C1609194021091950284E090E00E94CD
:102BB0003622612F81E290E00E9436220F900F9022
:102BC0000F900F900F90DF91CF911F910F91FF9079
:102BD000EF90DF90CF90BF90AF909F908F907F90BD
:102BE0006F905F904F900C94D10E0C302DE5120732
:102BF00039F00D303DE5130709F040CF26E201C062
:102C000025E241EE61EEC6010F900F900F900F90FC
:102C10000F90DF91CF911F910F91FF90EF90DF9078
:102C2000CF90BF90AF909F908F907F906F905F906C
:102C30004F900C944614033EFCE51F07F1F058F446
:102C4000013E3CE51307A1F0023E8CE5180709F0B0
:102C500019CF81E00AC0043E9CE5190781F084E0A9
:102C6000053EECE51E0709F00DCF80937E0202C001
:102C700010927E020E946B0C05CF82E0F6CF83E0BB
:102C8000F4CF82EE0E94271318CF83E00E942C0716
:102C900088E10E94271388E10E94CA1283E00E9403
:102CA00021070BCF82EE0E94271387E50E94331481
:102CB00004CF86EE0E94331488E1F8CF06971ACF2E
:102CC00082EE0E94CA122ECF8CE20E9433142ACFC9
:102CD00088E2FBCF033FFCE51F0709F170F4083DD4
:102CE0003CE51307C1F0093D8CE5180721F1073DCC
:102CF0009CE5190709F482CF19CF053FECE51E07C3
:102D0000B1F088F0063F2CE5120709F00FCF27E25B
:102D100045EE66EE78CF27E245EE65EE74CF26E20B
:102D200041EE60EE70CF27E245EE64EE6CCF26E216
:102D300041EE62EE68CF28E241E0EFCF809194024D
:102D4000806106309CE5190709F447C08091940220
:102D5000886007301C4508F440C08091940280626E
:102D60003CC00B30FCE51F0709F49BC068F4093038
:102D70003CE5130709F48BC00A301C4509F011CF5C
:102D8000809194028C6029C0809194028B7F0D30D9
:102D90009CE5190711F1809194028D7F0E301C453E
:102DA000E0F080919402877F18C00A3FFCE51F077E
:102DB00009F461C060F502313CE5130709F481C0F4
:102DC00078F400319CE5190709F477C080919402EA
:102DD0008F7B01311C4509F0E4CE80939402E1CE53
:102DE0000431FCE51F0709F47AC008F470C005310E
:102DF0001C4509F0D6CE8091940282FB992790F968
:102E000021E0922790FB82F990FB83F9E6CF0D3FFA
:102E10008CE5180709F449C070F40B3FECE51E0778
:102E200071F1809195028E7F0C3F1C4509F0B9CE5F
:102E300080939502B6CE0F3F2CE5120709F44BC0E4
:102E400060F101151D4509F0ACCE80919502982FD7
:102E5000909591708E7F892B90FB81F9E9CF8091BD
:102E600094028160BACF809194028260B6CF809143
:102E700094028460B2CF809195028160D9CF809115
:102E800095028260D5CF809194028064A6CF0E9483
:102E9000D10E809194028068A0CF809195028360CA
:102EA000C7CF809194028E7F98CF809195028D7FBD
:102EB000BFCF809194028F7E90CF809194028F7DBE
:102EC0008CCF0E94D10E809194028F7786CF809113
:102ED0009402837F82CF809195028C7FA9CF0E943C
:102EE000D10E90919402892F97FB87F9805875CF66
:102EF00001159CE5190709F448C00E3DECE51E07D5
:102F000009F480C006311C4509F493C0F601008124
:102F10001181882309F4BFC0C8010E94F309F82E6B
:102F2000682FC8010E94E906B8018F2D0E94C607CC
:102F30008C01B82EF601E580E2943FE0E322F280B6
:102F4000F1101092700280916E02877079F0FF206C
:102F500069F080E2800F883048F082E00E948E0E97
:102F600080916E028770AA24A3948111A12C912EC6
:102F700092942FE09222FBE0F91508F4C6C0E92DE7
:102F8000F0E0EA54FC4D0C941C220E94D10EFFEF9D
:102F900024E33CE0F15020403040E1F700C0000065
:102FA000F89481E08093E00080E28093D800109252
:102FB000C9008FE19EE40197F1F700C000001DBA3F
:102FC000109268001CBC10BE1FBA10927A001092BA
:102FD0006E0010926F0010927100109272001092A9
:102FE000C9001092BC0014B817B81AB81DB810BAAE
:102FF0001092BC0015B818B81BB81EB811BA0C94C2
:10300000003FCACC0F900F900F900F900F90DF9160
:10301000CF911F910F91FF90EF90DF90CF90BF90D5
:10302000AF909F908F907F906F905F904F900C9497
:10303000710C882331F1809171028A7A91E009F450
:1030400090E09093F60181111AC089E20E948C06EB
:103050000F900F900F900F900F90DF91CF911F91D5
:103060000F91FF90EF90DF90CF90BF90AF909F9027
:103070008F907F906F905F904F900C941C0685E32B
:10308000E5CF8091F601811104C089E20E946106BA
:10309000DFCF85E3FBCFC8010E94C006F82E44CFE6
:1030A000212F2F70E22E107F19F0E29490EFE92289
:1030B000FF20C9F0EE2069F080E2800F883010F028
:1030C000B1100BC080917102E82AE09271020E9457
:1030D0001C06802F0E94271318C080917002E82AD6
:1030E000E0927002F4CF802F0E94CA12EE2069F0A5
:1030F000E094005E083010F0B1103CC08091710285
:10310000E822E09271020E941C06292D2850330B00
:103110002430310510F40E947707AA2009F43CCC32
:1031200080916E0280FD38CCF601128285958595DE
:1031300085950E94A60EC6010E94AA1480916E0277
:103140008595859585950F900F900F900F900F9016
:10315000DF91CF911F910F91FF90EF90DF90CF9073
:10316000BF90AF909F908F907F906F905F904F90A7
:103170000C946B0E80917002E822E0927002C3CF33
:10318000312F3F70832E107F103219F0829480EF20
:103190008822802FBB2041F091E0B91631F1FF2049
:1031A00079F1EE2041F195CFFF2091F090917202DC
:1031B000892F8829E11003C00E944107A6CFE1E0D2
:1031C000EE12FACF981709F4A0CF809372029DCF28
:1031D000E11006C00E941606882D0E94360795CF82
:1031E000F1E0EF1609F491CFF5CFFF2031F021E0A7
:1031F0002E1508F48ACF882DDFCFE11086CFECCFD3
:10320000EE2051F3893349F43FEF87EE93E03150DC
:1032100080409040E1F700C00000802F0E94CA1259
:1032200074CF812F86958695837061F0813009F087
:103230006CCFC8019370F11002C090E080E00E9452
:103240004B0763CFC8019370F11002C090E080E09B
:103250000E9461075ACFFF2009F1053F99F0063F10
:10326000B9F0043F49F48091F7019091F801816031
:103270009093F8018093F701802F0E9484050E94AB
:103280002E0E43CF8091F7019091F8018260F0CF2C
:103290008091F7019091F8018460EACF053F89F0B1
:1032A000063FA9F0043F49F48091F7019091F8019D
:1032B0008E7F9093F8018093F701802F0E94BF04C6
:1032C000DECF8091F7019091F8018D7FF2CF809150
:1032D000F7019091F8018B7FECCF812F837009F07B
:1032E00066C0F11012CF802F829586958770880F67
:1032F000880F602F6F70462E512C712C612C082E78
:1033000004C0440C551C661C771C0A94D2F740E09C
:1033100050E0BA0104FF0FC04FE050E060E070E001
:1033200004C0440F551F661F771F8A95D2F740953A
:10333000509560957095812F869586958370823023
:1033400019F1D8F400917302109174022091750262
:1033500030917602813069F0442955296629772910
:10336000CB01BA0160237123822393230E94C70EED
:10337000CCCE402A512A622A732ACB01BA01642991
:10338000752986299729F2CF442955296629772955
:1033900000917302109174022091750230917602AF
:1033A000CB01BA016027712782279327DFCF86954B
:1033B000FF2011F0812F8170882309F4A6CE802F81
:1033C000829586958770880F880F602F6F70462EC4
:1033D000512C712C612C082E04C0440C551C661C09
:1033E000771C0A94D2F740E050E0BA0104FF0FC006
:1033F0004FE050E060E070E004C0440F551F661FCE
:10340000771F8A95D2F74095509560957095812FDA
:10341000869586958370823019F1D8F400916A02FE
:1034200010916B0220916C0230916D02813069F035
:103430004429552966297729CB01BA0160237123D4
:10344000822393230E945F0E60CE402A512A622A73
:10345000732ACB01BA016429752986299729F2CFED
:10346000442955296629772900916A0210916B0237
:1034700020916C0230916D02CB01BA016027712757
:1034800082279327DFCF1F70FF2029F0812F0E9412
:10349000A60E802F91CE802F0E943607812F0E948A
:1034A0006B0E33CE802FE2EFBE1609F44EC0EB1543
:1034B00078F0F0EFBF1619F121EFB21609F43DC014
:1034C000FF2009F465C0E11004CE812F8F713AC04E
:1034D00033EFB31609F43EC094EFB912F1CFFF20D9
:1034E00009F44BC01F71812F0E94A60EF8E01F9FA8
:1034F000C0011124836080936E02812F23C0FF20BE
:10350000B9F0E11002CE1F7161E070E080E090E060
:1035100004C0660F771F881F991F1A95D2F7009174
:103520006A0210916B0220916C0230916D02A6CF5D
:10353000E1E0EE1508F4E9CDE6CF812F8F71FF2091
:1035400009F4ADCF0E94A60EE0CD812F8F71FF2030
:10355000C9F3A5CF60E070E0CB01FF2009F472CF82
:103560001F7161E070E080E090E004C0660F771F9B
:10357000881F991F1A95D2F765CF81E00E948E0EA1
:1035800021E02E1508F0C1CD82E00E948E0EBDCD47
:10359000E11038CE812F8F7182CFE2EFBE16D1F1CC
:1035A000EB1500F1F0EFBF1649F121EFB216D1F1A2
:1035B0008091F901EE2009F441C0882341F0809107
:1035C000FA0191E089278093FA011092F901802F86
:1035D000F11080CD0E94CA1286E0F60111928A9500
:1035E000E9F793CD34EFB316C1F0B31688F085EF49
:1035F000B812DECFF11089CD81E007C0FF2009F4B9
:1036000084CD8091FA0191E089278093FA017DCDE4
:1036100081E0F826F092FA0178CDF11076CD109283
:10362000FA0173CDFF2039F08091F901882349F325
:103630001092F9016ACDEE2021F367CD882309F4B9
:1036400064CDF11062CD8091FA0191E089278093D9
:10365000FA01EECF85E0DE01119601900D928A9578
:10366000E1F7F601228189819A812111ABC90E947B
:10367000C006082FAFC91F93CF93DF93809100023C
:10368000807FC1F48091FD018823A1F080913202F6
:10369000C09101026091FB017091FC014091FE011B
:1036A0005091FF01D62FD723DA01A095B09516E0EF
:1036B000C81304C0DF91CF911F91089590E0411588
:1036C000510511F0DF3F31F401968770F1CF2A0FD9
:1036D0003B1F17C0189FF001199FF00D1124EE5FDA
:1036E000FD4F21812713F0CF20812613EDCF2281BA
:1036F0002111EACF238134812417350740F3241B9D
:10370000350B283C310500F7209100022F70206115
:103710002093000226E0289FF001299FF00D11243C
:10372000E95FFD4F80818F70806180838BEF91E036
:103730000E94AA14DF91CF911F910C941707BF929A
:10374000CF92DF92EF92FF920F931F93CF93DF936D
:10375000CDB7DEB761970FB6F894DEBF0FBECDBF11
:103760008C0185E0F801DE011D9601900D928A958D
:10377000E1F7D8012C9111963C9111971296EC909B
:1037800012978091FE019091FF01009709F463C1A7
:103790004091FB015091FC01642F65236F3F09F4B8
:1037A0005AC11396CD90DC90B090FD01BB2009F476
:1037B00013C1C816D906C0F1F601E81BF90BCF01F9
:1037C000FF24F394883C910508F0F12C80910002CD
:1037D000982F907FFF2009F4C1C091117DC0FE2C6D
:1037E000531327C0421325C0E11023C08F7080619E
:1037F000809300028BEF91E00E94AA148091000256
:10380000D80115968C938F2D61960FB6F894DEBF74
:103810000FBECDBFDF91CF911F910F91FF90EF9021
:10382000DF90CF90BF900895809590958C0D9D1D51
:10383000C7CFCD2829F0822F83238F3F09F035C1D0
:1038400080E0B82FB170DB2E80FF3CC08091320247
:103850004091010256E0841315C02D873E878D8567
:103860009E850E94350A292F22952F702230F0F074
:10387000243018F59F70F1F0F8019581907FD1F414
:10388000D12C1EC090E0589FF001599FF00D1124DB
:10389000EE5FFD4F6181361306C06081261303C0C1
:1038A0006281E6120FC001968770D5CF9F7011F02C
:1038B000882331F3805E883018F3C8010E94AA146F
:1038C000FD2CA1CFEE2009F49ECF809100028160F3
:1038D00080930002F12C97CF531313C0421311C0F1
:1038E000E1100FC0D80115968C93C8010E94AA144C
:1038F00086E0F801ABEFB1E001900D928A95E1F717
:1039000082CF2D873E878D859E850E943F0A882322
:1039100009F1EE20F9F080910002803270F02091E0
:10392000FB013091FC0138872F831986DB86CA861C
:103930008C87CE0107960E94AA1486E0F801ABEFAF
:10394000B1E001900D928A95E1F70E943B1BFF24A4
:10395000F39459CFC8010E94AA14F9CF91110CC059
:103960008BEF91E00E94AA1486E0EBEFF1E0DF011B
:103970001D928A95E9F747CF531312C0421310C026
:10398000E1100EC0F8018583C8010E94AA14EBEF74
:10399000F1E086E0DF011D928A95E9F7FB2C33CF39
:1039A0002D873E878D859E850E943F0A882391F250
:1039B000EE2081F280910002803208F4BECF209187
:1039C000FB013091FC013A8329831B82DD82CC828A
:1039D0008E83CE010196AFCFC816D90640F0C81A23
:1039E000D90AB8ECCB16D10448F0F12CBDCF8095A4
:1039F00090958C0D9D1D883C9105B8F7FE2CEE200E
:103A000009F4A8CF531316C0421314C080910002CA
:103A100080FD6ECF982F907F09F46ACFF8018583DF
:103A2000903F09F462CF982F907F905F8F70892B21
:103A300085835BCF2D873E878D859E850E943F0ABB
:103A400081117BCF80910002816080930002C801C8
:103A50000E94AA14D8CEEE2009F47CCF2D873E8791
:103A60008D859E850E943F0AF82E882309F472CF27
:103A700086E0F801ABEFB1E001900D928A95E1F795
:103A80008091FB019091FC010E94350A92959F70F4
:103A9000963041F48091FA0191E089278093FA01F0
:103AA0009093F9010E943B1BAECE81E08E25C9CEDA
:103AB0001F93CF93DF93CDB7DEB767970FB6F89418
:103AC000DEBF0FBECDBF6D8B7E8B8F8B8E899F89A6
:103AD000892BE1F0852F84238F3F09F098C05FEF99
:103AE0004FEF14C03091FA01332309F44EC0E42F94
:103AF000F0E036E0539FE00DF11D1124EE0FFF1FA3
:103B0000ED5EFE4F40815181822B8C931A8A198A77
:103B10004B8B5C8B85E0FE017396DE011D96019058
:103B20000D928A95E1F786E0FE013D96DE0117963B
:103B300001900D928A95E1F7CE0107960E949F1B96
:103B4000811112C086E0FE013796DE0111960190C8
:103B50000D928A95E1F78A859B85892B29F08F81C3
:103B6000988589238F3FC9F516E0809132029091A4
:103B70000102891320C067960FB6F894DEBF0FBE0E
:103B8000CDBFDF91CF911F91089580958223BDCF46
:103B900096E0929FD001939FB00D1124AE5FBD4F70
:103BA000FE01319601900D929A95E1F78093010202
:103BB0000E941707D9CF819FC00111248E5F9D4FAE
:103BC0000E949F1B8823B9F28091320290E00196F7
:103BD0008770992780933202C8CF2091010230E08C
:103BE000C90101968770992740913202481719063A
:103BF00079F60E94D10E109201021092320286E0F4
:103C0000EBEFF1E0DF011D928A95E9F7ADCF81E09E
:103C100090E0042E01C0880F0A94EAF7A52FB0E0C7
:103C2000AA51BE4F2C913D8931115CCF322F3823E0
:103C30005BCF8F929F92AF92BF92CF92DF92EF9223
:103C4000FF920F931F93CF93DF9380910601909182
:103C50000701892B91F08091DE018F5F8093DE0157
:103C600081110BC00E94390D90E090930701809361
:103C70000601892B11F40E94F10B06E812E078018D
:103C8000C0E0912C37E0C32ECC0E8C2F0E94E50CA7
:103C90008C2D0E94E50C8C2F0E94B00DD7019D91B8
:103CA0007D01D12C891729F0FD0131978083DD2416
:103CB000D3948C2D0E94B00DF7019681891709F4D9
:103CC00066C0868381E08D29982A0E94EB0ACF5F27
:103CD000C730C1F60E94220E6AEF70E00E94F42104
:103CE000882ED091DD01DD2309F45DC01092DD0145
:103CF000E0917C02F0917D027F012EE0E20EF11C4A
:103D000040E0CBEF2AEFC22ED12C51915B3F81F0E6
:103D1000652F70E0282D392F8517D8F1261B370B1A
:103D20002E313105E4F19F0121503109D901CC93A5
:103D3000EE16FF0651F74093DD01911002C04111CC
:103D400034C01092DC01A0917C02B0917D022091E0
:103D5000DD01E9E9F2E047EA52E090E06191E80133
:103D600039918E01631751F06C916B3FD1F48C93B4
:103D7000BF0161507109EB01388321E011964E17A4
:103D80005F0761F72093DD019093DC0112C080E0B2
:103D90009ACFD601A61BB70B2A0F3B1FC1CF4D2FC1
:103DA000C7CF91E0EBCF9110CCCF9091DC01911176
:103DB000C8CF892DDF91CF911F910F91FF90EF9088
:103DC000DF90CF90BF90AF909F908F900895CDB728
:103DD000DEB72A970FB6F894DEBF0FBECDBF84B70B
:103DE000877F84BF0FB6F894A895809160008861A2
:103DF00080936000109260000FBE80E890E00FB6E4
:103E0000F89480936100909361000FBE85B780683D
:103E100085BF85B7806885BF0E942A030E94F5038D
:103E20008091E20084608093E20078948091E502C2
:103E30008823A1F01091E9001F709091EC00892F68
:103E4000817090FD80E8182B1092E9008091E800C5
:103E500083FD0E94E60E1F701093E90082E084BD8E
:103E600093E095BD9AEF97BD80936E000E94390D47
:103E700090E090930701809306010E94EB0A0E9454
:103E8000FA0AA6E8B2E0E9E9F2E011921D9222E016
:103E9000E73AF207D1F78EE090E00E946A22809321
:103EA0007C0290937D02FC010E962BEF2193E81784
:103EB000F907E1F790E080E00E9430228F3E9E4FAC
:103EC00011F00E94710C8CE090E00E94222290E0A0
:103ED000B0E0A0E080937E0290937F02A0938002E6
:103EE000B093810289EA8093800089E08093810009
:103EF00024982C983F988AB18F7C8AB96E98479AFB
:103F00008BB180638BB9769A8FE090E00E942A2271
:103F1000609382027093830280938402909385025F
:103F200067708FEF689FB00111247595679575953F
:103F300067957727709389006093880070938B0052
:103F400060938A0070938D0060938C000E94F10B47
:103F500090E080E00E9430228F3E9E4F11F00E9440
:103F6000710C82E090E00E9422228093B1020E94B4
:103F7000010B909395028093940283E090E00E945D
:103F80002222682F70E090E080E00E94C70E88E057
:103F900091E09093970280939602DD24D394CC24F1
:103FA000CA9480E1B82E92E1A92E28E1E22EF12CEC
:103FB00030E4932E8091E502853009F458C00E94C8
:103FC000191EE2EBF2E0A9E9B2E010E000E0302FC8
:103FD0008D912191281709F497C090E0882483944B
:103FE0002827422F482109F48AC099833A838821DF
:103FF00091E009F490E09B830E94220E8160782F6B
:104000009D838C8349815A816B818D810E94581DCB
:10401000F801EE54FD4F8081882680828091AE02A7
:104020009091AF020E94EC059C019091AD02992302
:1040300019F02431310578F02091A9028090AA026C
:104040000091AB021091AC02211174C0882D802B1D
:10405000812B09F0E5C00E9477079091B002891783
:1040600009F4A8CF0E9477078093B002A3CF809174
:10407000E502843009F1109298020FB6F894A895E1
:10408000E09260000FBE9092600083B7817F8460F1
:1040900083BF83B7816083BF7894889583B78E7F11
:1040A00083BF0FB6F894A8958091600088618093D3
:1040B0006000109260000FBE8091E402882309F432
:1040C00079CF0E94390D90E090930701809306010B
:1040D0000E94EB0A0E94FA0AE9E9F2E0119242E03A
:1040E000E73AF407D9F70E94191EE9E9F2E0819155
:1040F000811182C082E0E73AF807C9F75BCF9F5F82
:10410000880C963009F06DCF0F5F1F4F0E301105F0
:1041100009F05DCFCE82CF8218860E94220E816088
:10412000782F9A8789874E815F8168858A850E946A
:10413000581D74CF9F3F19F09F5F9093AD021216E8
:1041400024F40E9460058093A9028091A90287FF50
:1041500005C00E94600581958093A902181424F47B
:104160000E9460058093AA028091AA0287FF05C081
:104170000E94600581958093AA023091A9023323A1
:10418000A1F02091AA02222381F045EB3403C00163
:104190001124992359F19093A90245EB240390012E
:1041A0001124332331F13093AA02101624F40E9413
:1041B0003E058093AB028091AB0287FF05C00E9451
:1041C0003E0581958093AB02111624F40E943E05B2
:1041D0008093AC028091AC0287FF05C00E943E052F
:1041E00081958093AC020E942E0E35CFD092A90209
:1041F000D4CFD092AA02D9CFB9BCA9BC09B400FED1
:10420000FDCF8091D8008F7D8093D8008091E00011
:1042100082608093E0008091E00081FDFCCFCACEF7
:104220009F3F09F089CF9ACF1F921FB61F9211248A
:104230008F939F93AF93BF9380919802811113C086
:104240008091770290917802A0917902B0917A02E0
:104250004196A11DB11D8093770290937802A0939F
:104260007902B0937A02BF91AF919F918F911F9085
:104270001FBE1F9018951092B9008CE08093B80073
:104280000895EF92FF920F931F93CF93DF93182F10
:10429000EB011092BC0084EA8093BC000E94220EC5
:1042A0007C018091BC0087FF27C08091B900887F86
:1042B000883029F08091B900887F8031D9F510933A
:1042C000BB0084E88093BC000E94220E8C01809188
:1042D000BC0087FF24C02091B900287F90E080E0D7
:1042E0002831B1F081E090E0203411F490E080E0DA
:1042F0009195819591090CC0CF3FDC0791F20E9406
:10430000220E8E199F098C179D0758F28EEF9FEF92
:10431000DF91CF911F910F91FF90EF900895CF3FC4
:10432000DC07A9F20E94220E801B910B8C179D07BF
:1043300070F2ECCF8FEF9FEFEBCF0F931F93CF93E4
:10434000DF93EB018093BB0084E88093BC000E9464
:10435000220E8C018091BC0087FF11C02091B90012
:10436000287F81E090E0283211F490E080E0919580
:1043700081959109DF91CF911F910F910895CF3FC2
:10438000DC0741F30E94220E801B910B8C179D07C6
:1043900008F38EEF9FEFEECF0F931F93CF93DF9332
:1043A000EC0184E88093BC000E94220E8C01809175
:1043B000BC0087FF08C08091BB0090E0DF91CF91E7
:1043C0001F910F910895CF3FDC0789F30E94220EC1
:1043D000801B910B8C179D0750F38EEF9FEFEECF54
:1043E00084E98093BC000895AA1BBB1B51E107C060
:1043F000AA1FBB1FA617B70710F0A61BB70B881F75
:10440000991F5A95A9F780959095BC01CD01089503
:1044100097FB072E16F4009407D077FD09D00E9471
:10442000F42107FC05D03EF4909581959F4F0895A7
:10443000709561957F4F0895EE0FFF1F0590F491E1
:10444000E02D0994F999FECF92BD81BDF89A992784
:1044500080B50895A6E1B0E044E050E00C945C2201
:10446000A8E1B0E042E050E00C945C22262FF999DC
:10447000FECF92BD81BDF89A019700B4021639F0C3
:104480001FBA20BD0FB6F894FA9AF99A0FBE089594
:104490000396272F0E9437220E943622252F0E9442
:1044A0003722242F0C9437220196272F0E9437227F
:1044B0000C943622DC01CB01FC01F999FECF06C039
:1044C000F2BDE1BDF89A319600B40D9241505040D2
:1044D000B8F708950F931F93CF93DF938230910520
:1044E00010F482E090E0E091F102F091F20230E00D
:1044F00020E0B0E0A0E0309799F42115310509F4EF
:1045000047C0281B390B24303105C0F58A819B81B7
:104510006115710571F1FB0193838283FE0111C066
:10452000408151810281138148175907F8F04817DB
:10453000590799F4109761F012960C9312971396FD
:104540001C933296CF01DF91CF911F910F91089567
:104550000093F1021093F202F4CF2115310519F006
:104560004217530718F49A01BD01EF01DF01F8016A
:10457000C2CF9093F2028093F102D0CFFE01E20FFE
:10458000F31F819391932250310939832883DACF25
:104590002091EF023091F002232B41F4209102018F
:1045A000309103013093F0022093EF02209100013B
:1045B000309101012115310541F42DB73EB74091ED
:1045C000040150910501241B350B4091EF025091DD
:1045D000F0024217530708F0B5CF241B350B2817FC
:1045E000390708F4AFCFBC016E5F7F4F261737073E
:1045F00008F4A8CF640F751F7093F0026093EF0268
:10460000FA01819391939ECFCF93DF930097E9F0C6
:10461000FC01329713821282C091F102D091F20212
:10462000DE0130E020E02097A1F420813181820F6B
:10463000931F2091EF023091F0022817390709F0FB
:1046400067C0F093F002E093EF02DF91CF910895FD
:10465000DA01AE17BF0708F040C012964D915C9189
:1046600013979D014115510599F7D9011396FC93B4
:10467000EE9312974D915D91A40FB51FEA17FB07BA
:1046800079F4808191810296840F951FD90111964A
:104690009C938E938281938113969C938E93129711
:1046A000B0E0A0E08A819B810097B9F5FE0181917D
:1046B0009191E80FF91F8091EF029091F0028E170F
:1046C0009F0719F6109761F51092F2021092F1020D
:1046D000D093F002C093EF02B8CFB383A28340819E
:1046E0005181840F951FA817B90771F44E5F5F4F72
:1046F0008D919C911197480F591F518340831296B9
:104700008D919C91938382832115310509F0ADCF62
:10471000F093F202E093F10298CFDE01EC01C2CFF8
:1047200013961C921E921297D3CFF894FFCF4E0A85
:104730004E0A570A570A590A570A570A570A4E0A81
:104740004E0A5E0A570A570A5E0AD20ADE0AE30ACE
:10475000DC0AE10AE80AE60AC90FF10F9311F10F2A
:1047600093112410451093114E115B1150185018DD
:10477000C018C01811192B19CD1A85186D19431AB4
:04478000521A521A5D
:104784000000F30220002000BC04AB0B800B4A0B9A
:104794000F0B01000D010D020D030D040D050D009D
:1047A4000C010C020C030C040C050C000B010B0295
:1047B4000B030B040B050B000A010A020A030A048B
:1047C4000A050A0009010902090309040905090087
:1047D4000801080208030804080508000701070285
:1047E400070307040705070006010602060306047B
:1047F4000605060005010502050305040505050077
:104804000401040204030404040504000301030274
:10481400030303040305030002010202020302046A
:104824000205020001010102010301040105010066
:0C48340000010002000300040005000069
:00000001FF
